:100000000C943A000C944F000C944F000C944F0049
:100010000C944F000C944F000C944F000C944F0024
:100020000C944F000C944F000C944F000C944F0014
:100030000C944F000C944F000C944F000C944F0004
:100040000C944F000C944F000C944F000C944F00F4
:100050000C944F00710177017D01830189018F01AB
:100060009501C5019B019F01A501AB01B101B9013A
:100070006F01BF0111241FBECFE5D8E0DEBFCDBFA9
:1000800010E0A0E6B0E0EAE7F7E002C005900D92CC
:10009000AC38B107D9F70E94D0010C94BB030C9483
:1000A000000095B39F70282F207F922B95BB95B3AE
:1000B0009E7F95BB95B3926095BB32E03A95F1F780
:1000C00000C095B39D7F95BBEFE8F1E03197F1F764
:1000D00000C0000025B3F0E18F9FC0011124922FD2
:1000E0009F70892B85BB85B3826085BB32E03A95D2
:1000F000F1F700C085B38D7F85BB8FE99FE0019745
:10010000F1F700C00000089595B39F70282F207F5D
:10011000922B95BB95B3916095BB95B3926095BBBF
:1001200032E03A95F1F700C095B39D7F95BBEFE8BB
:10013000F1E03197F1F700C0000025B3F0E18F9FA7
:10014000C0011124922F9F70892B85BB85B38260DB
:1001500085BB32E03A95F1F700C085B38D7F85BB52
:100160008FE99FE00197F1F700C0000008958FEF3D
:1001700084BB8FE39CE90197F1F700C0000082E0A7
:100180000E94510088E20E9451008CE00E945100C0
:1001900086E00E94510081E00E945100089581E0B4
:1001A0000E94510082E00E94510008950F931F9316
:1001B000CF93DF938C01C0E0D0E003C00E948400A5
:1001C0002196F801EC0FFD1F80818111F7CFDF919F
:1001D000CF911F910F9108951ABA87E886B980E4EC
:1001E00087B9089597B18F70982B97B986B18064BD
:1001F00086B9349BFECF8AE18A95F1F700C024B11D
:1002000085B190E0982F8827820F911D089512BE26
:100210008BE683BF81B3806181BB08950F931F93E9
:10022000CF93DF93CDB7DEB72A970FB6F894DEBF32
:100230000FBECDBF0E94CF0080E690E00E94D600A6
:1002400080EC0E94510080E00E94F200BC01990FF6
:10025000880B990B0E94870220E030E040EA50E4CE
:100260000E94130320E030E040E85AE30E941303A9
:1002700020E030E04FE753E40E94130320E030E039
:1002800040EA50E40E94DD010E944F02162F072F22
:100290006CBF89E690E00E94D6004AE0BE016F5F25
:1002A0007F4F812F902F0E9486030E94D6002A96AE
:1002B0000FB6F894DEBF0FBECDBFDF91CF911F9177
:1002C0000F910895829BFECFE6B38E2F90E0803190
:1002D000910528F4FC01E65DFF4F0C9480038FEF3D
:1002E00055C086E790E00E94D60087E04FC086E7C1
:1002F00090E00E94D60088E049C086E790E00E9426
:10030000D60089E043C088E790E00E94D6008FEFD6
:100310003DC086E790E00E94D60084E037C086E7C3
:1003200090E00E94D60085E031C086E790E00E9410
:10033000D60086E02BC00E940E0181E027C086E730
:1003400090E00E94D60082E021C086E790E00E9403
:10035000D60083E01BC08AE790E00E94D6008FEFB2
:1003600015C00E94CF008CE790E00E94D6008FEF6E
:100370000DC086E790E00E94D60080E007C089E8C3
:1003800090E00E94D6008FEF01C088EC2FEF34E39D
:100390009CE0215030409040E1F700C000000895FB
:1003A0000E94B7000E94EC000E9407018CE790E0D9
:1003B0000E94D6000E946201FDCF0E94F1010C94C0
:1003C000D9020E94D20258F00E94CB0240F029F4D8
:1003D0005F3F29F00C94C20251110C940D030C9450
:1003E000C8020E94EA0268F39923B1F3552391F3FE
:1003F000951B550BBB27AA2762177307840738F094
:100400009F5F5F4F220F331F441FAA1FA9F335D0F0
:100410000E2E3AF0E0E832D091505040E695001CA4
:10042000CAF72BD0FE2F29D0660F771F881FBB1F5E
:10043000261737074807AB07B0E809F0BB0B802D3C
:10044000BF01FF2793585F4F3AF09E3F510578F068
:100450000C94C2020C940D035F3FE4F3983ED4F376
:10046000869577956795B795F7959F5FC9F7880F3C
:10047000911D9695879597F90895E1E0660F771F8E
:10048000881FBB1F621773078407BA0720F0621B1F
:10049000730B840BBA0BEE1F88F7E09508950E944A
:1004A00056026894B1110C940D0308950E94F20253
:1004B00088F09F5798F0B92F9927B751B0F0E1F025
:1004C000660F771F881F991F1AF0BA95C9F714C0D5
:1004D000B13091F00E940C03B1E008950C940C032C
:1004E000672F782F8827B85F39F0B93FCCF386950E
:1004F00077956795B395D9F73EF49095809570956B
:1005000061957F4F8F4F9F4F0895E89409C097FBE7
:100510003EF490958095709561957F4F8F4F9F4FDA
:100520009923A9F0F92F96E9BB279395F69587951E
:1005300077956795B795F111F8CFFAF4BB0F11F4E1
:1005400060FF1BC06F5F7F4F8F4F9F4F16C0882388
:1005500011F096E911C0772321F09EE8872F762FBE
:1005600005C0662371F096E8862F70E060E02AF0FF
:100570009A95660F771F881FDAF7880F96958795EB
:1005800097F9089597F99F6780E870E060E0089513
:100590009FEF80EC089500240A941616170618069B
:1005A0000906089500240A94121613061406050677
:1005B0000895092E0394000C11F4882352F0BB0F08
:1005C00040F4BF2B11F460FF04C06F5F7F4F8F4F6B
:1005D0009F4F089557FD9058440F551F59F05F3FA6
:1005E00071F04795880F97FB991F61F09F3F79F055
:1005F00087950895121613061406551FF2CF4695D7
:10060000F1DF08C0161617061806991FF1CF869558
:100610007105610508940895E894BB27662777273C
:10062000CB0197F908950E9426030C94D9020E94E9
:10063000CB0238F00E94D20220F0952311F00C94E6
:10064000C2020C94C80211240C940D030E94EA0209
:1006500070F3959FC1F3950F50E0551F629FF00115
:10066000729FBB27F00DB11D639FAA27F00DB11D2E
:10067000AA1F649F6627B00DA11D661F829F2227B7
:10068000B00DA11D621F739FB00DA11D621F839F3E
:10069000A00D611D221F749F3327A00D611D231F14
:1006A000849F600D211D822F762F6A2F11249F5762
:1006B00050409AF0F1F088234AF0EE0FFF1FBB1F65
:1006C000661F771F881F91505040A9F79E3F510524
:1006D00080F00C94C2020C940D035F3FE4F3983E4B
:1006E000D4F3869577956795B795F795E7959F5FCE
:1006F000C1F7FE2B880F911D9695879597F9089560
:10070000EE0FFF1F0590F491E02D0994BB274A30AE
:1007100031F4992322F4BDE2909581959F4F0C947A
:100720009203BB27FB015527AA27880F991FAA1FF1
:10073000A41710F0A41B83955051B9F7A05DAA33FC
:1007400008F0A95DA193009779F7B111B1931192C7
:10075000CB010C94AB03DC01FC01672F7191772373
:10076000E1F7329704C07C916D9370836291AE176C
:0A077000BF07C8F30895F894FFCF07
:10077A004443204D6F746F72004475747920437935
:10078A00636C653A20002A002F002D00544845204A
:0C079A004D41545249582121002B000011
:00000001FF
