:100000000C942A000C943F000C943F000C943F0089
:100010000C943F000C943F000C943F000C943F0064
:100020000C943F000C943F000C943F000C943F0054
:100030000C943F000C943F000C943F000C943F0044
:100040000C943F000C943F000C943F000C943F0034
:100050000C943F0011241FBECFE5D8E0DEBFCDBF1A
:1000600010E0A0E6B0E0E2EEF1E002C005900D92F3
:10007000A637B107D9F70E94DF000C94EF000C946B
:10008000000092B39F70282F207F922B92BB92B3D7
:100090009E7F92BB92B3926092BB000092B39D7F11
:1000A00092BB32E43A95F1F700C022B330E1839F6E
:1000B000C0011124922F9F70892B82BB82B3826072
:1000C00082BB000082B38D7F82BB83EF91E00197FA
:1000D000F1F700C00000089592B39F70282F207F91
:1000E000922B92BB92B3916092BB92B3926092BBFF
:1000F000000092B39D7F92BB32E43A95F1F700C0C5
:1001000022B330E1839FC0011124922F9F70892B6D
:1001100082BB82B3826082BB000082B38D7F82BBD0
:1001200083EF91E00197F1F700C0000008958FEF91
:1001300081BB87E893E10197F1F700C0000082E0FE
:100140000E94410088E20E9441008CE00E94410030
:1001500086E00E94410081E00E94410008950F93D3
:100160001F93CF93DF938C01C0E0D0E003C00E94C7
:100170006C002196F801EC0FFD1F80818111F7CFF3
:10018000DF91CF911F910F9108950F931F93CF93FC
:10019000DF938C0188E40E944100C0E0D0E007C0FA
:1001A000F801EC0FFD1F80810E946C002196C83081
:1001B000D105B4F3DF91CF911F910F9108950E9463
:1001C000970088E690E00E94AF0080EC0E9441001A
:1001D00080E690E00E94C50080E090E00895F894E9
:0201E000FFCF4F
:1001E2000E0E04041F040A0A437573746F6D2043D4
:0601F20068617273000059
:00000001FF
