S01800004763634170706C69636174696F6E31332E7372656327
S11300000C942A000C943F000C943F000C943F0085
S11300100C943F000C943F000C943F000C943F0060
S11300200C943F000C943F000C943F000C943F0050
S11300300C943F000C943F000C943F000C943F0040
S11300400C943F000C943F000C943F000C943F0030
S11300500C943F0011241FBECFE5D8E0DEBFCDBF16
S113006010E0A0E6B0E0EAEFF1E002C005900D92E6
S1130070A839B107D9F70E94CC000C94FB000C946A
S1130080000092B39F70282F207F922B92BB92B3D3
S11300909E7F92BB92B3926092BB000092B39D7F0D
S11300A092BB32E43A95F1F700C022B330E1839F6A
S11300B0C0011124922F9F70892B82BB82B382606E
S11300C082BB000082B38D7F82BB83EF91E00197F6
S11300D0F1F700C00000089592B39F70282F207F8D
S11300E0922B92BB92B3916092BB92B3926092BBFB
S11300F0000092B39D7F92BB32E43A95F1F700C0C1
S113010022B330E1839FC0011124922F9F70892B69
S113011082BB82B3826082BB000082B38D7F82BBCC
S113012083EF91E00197F1F700C0000008958FEF8D
S113013081BB87E893E10197F1F700C0000082E0FA
S11301400E94410088E20E9441008CE00E9441002C
S113015086E00E94410081E00E944100089581E010
S11301600E94410082E00E94410008950F931F9372
S1130170CF93DF938C01C0E0D0E003C00E946C00F9
S11301802196F801EC0FFD1F80818111F7CFDF91DB
S1130190CF911F910F9108950E94970080E690E0FF
S11301A00E94B60080EC0E94410080E790E00E942B
S11301B0B6002FE382E49FE0215080409040E1F7B5
S11301C000C000000E94AF008CE790E00E94B600DF
S11301D080EC0E94410089E890E00E94B6002FE381
S11301E082E49FE0215080409040E1F700C000008D
S10D01F00E94AF00D3CFF894FFCFB4
S11301FA4D53502049493A454D5420333230320048
S113020A48656C6C6F20576F726C64004375737425
S113021A6F6D2063686172730054494C4C204E45DB
S10B022A58542054494D4500CD
S9030000FC
